{
  "_format": "hh-sol-artifact-1",
  "contractName": "NftMarketplace",
  "sourceName": "contracts/NftMarketplace.sol",
  "abi": [
    {
      "inputs": [],
      "stateMutability": "nonpayable",
      "type": "constructor"
    },
    {
      "inputs": [
        {
          "internalType": "address",
          "name": "sender",
          "type": "address"
        },
        {
          "internalType": "uint256",
          "name": "tokenId",
          "type": "uint256"
        },
        {
          "internalType": "address",
          "name": "owner",
          "type": "address"
        }
      ],
      "name": "ERC721IncorrectOwner",
      "type": "error"
    },
    {
      "inputs": [
        {
          "internalType": "address",
          "name": "operator",
          "type": "address"
        },
        {
          "internalType": "uint256",
          "name": "tokenId",
          "type": "uint256"
        }
      ],
      "name": "ERC721InsufficientApproval",
      "type": "error"
    },
    {
      "inputs": [
        {
          "internalType": "address",
          "name": "approver",
          "type": "address"
        }
      ],
      "name": "ERC721InvalidApprover",
      "type": "error"
    },
    {
      "inputs": [
        {
          "internalType": "address",
          "name": "operator",
          "type": "address"
        }
      ],
      "name": "ERC721InvalidOperator",
      "type": "error"
    },
    {
      "inputs": [
        {
          "internalType": "address",
          "name": "owner",
          "type": "address"
        }
      ],
      "name": "ERC721InvalidOwner",
      "type": "error"
    },
    {
      "inputs": [
        {
          "internalType": "address",
          "name": "receiver",
          "type": "address"
        }
      ],
      "name": "ERC721InvalidReceiver",
      "type": "error"
    },
    {
      "inputs": [
        {
          "internalType": "address",
          "name": "sender",
          "type": "address"
        }
      ],
      "name": "ERC721InvalidSender",
      "type": "error"
    },
    {
      "inputs": [
        {
          "internalType": "uint256",
          "name": "tokenId",
          "type": "uint256"
        }
      ],
      "name": "ERC721NonexistentToken",
      "type": "error"
    },
    {
      "inputs": [
        {
          "internalType": "address",
          "name": "owner",
          "type": "address"
        }
      ],
      "name": "OwnableInvalidOwner",
      "type": "error"
    },
    {
      "inputs": [
        {
          "internalType": "address",
          "name": "account",
          "type": "address"
        }
      ],
      "name": "OwnableUnauthorizedAccount",
      "type": "error"
    },
    {
      "anonymous": false,
      "inputs": [
        {
          "indexed": true,
          "internalType": "address",
          "name": "owner",
          "type": "address"
        },
        {
          "indexed": true,
          "internalType": "address",
          "name": "approved",
          "type": "address"
        },
        {
          "indexed": true,
          "internalType": "uint256",
          "name": "tokenId",
          "type": "uint256"
        }
      ],
      "name": "Approval",
      "type": "event"
    },
    {
      "anonymous": false,
      "inputs": [
        {
          "indexed": true,
          "internalType": "address",
          "name": "owner",
          "type": "address"
        },
        {
          "indexed": true,
          "internalType": "address",
          "name": "operator",
          "type": "address"
        },
        {
          "indexed": false,
          "internalType": "bool",
          "name": "approved",
          "type": "bool"
        }
      ],
      "name": "ApprovalForAll",
      "type": "event"
    },
    {
      "anonymous": false,
      "inputs": [
        {
          "indexed": false,
          "internalType": "uint256",
          "name": "_fromTokenId",
          "type": "uint256"
        },
        {
          "indexed": false,
          "internalType": "uint256",
          "name": "_toTokenId",
          "type": "uint256"
        }
      ],
      "name": "BatchMetadataUpdate",
      "type": "event"
    },
    {
      "anonymous": false,
      "inputs": [
        {
          "indexed": false,
          "internalType": "uint256",
          "name": "_tokenId",
          "type": "uint256"
        }
      ],
      "name": "MetadataUpdate",
      "type": "event"
    },
    {
      "anonymous": false,
      "inputs": [
        {
          "indexed": true,
          "internalType": "address",
          "name": "previousOwner",
          "type": "address"
        },
        {
          "indexed": true,
          "internalType": "address",
          "name": "newOwner",
          "type": "address"
        }
      ],
      "name": "OwnershipTransferred",
      "type": "event"
    },
    {
      "anonymous": false,
      "inputs": [
        {
          "indexed": false,
          "internalType": "string",
          "name": "name",
          "type": "string"
        },
        {
          "indexed": false,
          "internalType": "uint256[]",
          "name": "ids",
          "type": "uint256[]"
        },
        {
          "indexed": false,
          "internalType": "uint256",
          "name": "quantity",
          "type": "uint256"
        }
      ],
      "name": "ProductCreated",
      "type": "event"
    },
    {
      "anonymous": false,
      "inputs": [
        {
          "indexed": true,
          "internalType": "address",
          "name": "from",
          "type": "address"
        },
        {
          "indexed": true,
          "internalType": "address",
          "name": "to",
          "type": "address"
        },
        {
          "indexed": true,
          "internalType": "uint256",
          "name": "tokenId",
          "type": "uint256"
        }
      ],
      "name": "Transfer",
      "type": "event"
    },
    {
      "inputs": [
        {
          "internalType": "address",
          "name": "to",
          "type": "address"
        },
        {
          "internalType": "uint256",
          "name": "tokenId",
          "type": "uint256"
        }
      ],
      "name": "approve",
      "outputs": [],
      "stateMutability": "nonpayable",
      "type": "function"
    },
    {
      "inputs": [
        {
          "internalType": "address",
          "name": "owner",
          "type": "address"
        }
      ],
      "name": "balanceOf",
      "outputs": [
        {
          "internalType": "uint256",
          "name": "",
          "type": "uint256"
        }
      ],
      "stateMutability": "view",
      "type": "function"
    },
    {
      "inputs": [
        {
          "internalType": "string",
          "name": "_name",
          "type": "string"
        },
        {
          "internalType": "uint256",
          "name": "_price",
          "type": "uint256"
        },
        {
          "internalType": "uint256",
          "name": "_quantity",
          "type": "uint256"
        },
        {
          "internalType": "string",
          "name": "tokenUri",
          "type": "string"
        }
      ],
      "name": "createProduct",
      "outputs": [],
      "stateMutability": "nonpayable",
      "type": "function"
    },
    {
      "inputs": [
        {
          "internalType": "uint256",
          "name": "tokenId",
          "type": "uint256"
        }
      ],
      "name": "getApproved",
      "outputs": [
        {
          "internalType": "address",
          "name": "",
          "type": "address"
        }
      ],
      "stateMutability": "view",
      "type": "function"
    },
    {
      "inputs": [
        {
          "internalType": "uint256",
          "name": "tokenId",
          "type": "uint256"
        }
      ],
      "name": "getProductDetails",
      "outputs": [
        {
          "components": [
            {
              "internalType": "uint256",
              "name": "tokenId",
              "type": "uint256"
            },
            {
              "internalType": "string",
              "name": "name",
              "type": "string"
            },
            {
              "internalType": "uint256",
              "name": "price",
              "type": "uint256"
            },
            {
              "internalType": "uint256",
              "name": "quantity",
              "type": "uint256"
            },
            {
              "internalType": "address payable",
              "name": "owner",
              "type": "address"
            },
            {
              "internalType": "address payable",
              "name": "currentOwner",
              "type": "address"
            }
          ],
          "internalType": "struct NftMarketplace.Product",
          "name": "",
          "type": "tuple"
        }
      ],
      "stateMutability": "view",
      "type": "function"
    },
    {
      "inputs": [
        {
          "internalType": "string",
          "name": "_name",
          "type": "string"
        }
      ],
      "name": "getProductIds",
      "outputs": [
        {
          "internalType": "uint256[]",
          "name": "",
          "type": "uint256[]"
        }
      ],
      "stateMutability": "view",
      "type": "function"
    },
    {
      "inputs": [
        {
          "internalType": "address",
          "name": "owner",
          "type": "address"
        }
      ],
      "name": "getProductIdsByOwner",
      "outputs": [
        {
          "internalType": "uint256[]",
          "name": "",
          "type": "uint256[]"
        }
      ],
      "stateMutability": "view",
      "type": "function"
    },
    {
      "inputs": [
        {
          "internalType": "address",
          "name": "owner",
          "type": "address"
        },
        {
          "internalType": "address",
          "name": "operator",
          "type": "address"
        }
      ],
      "name": "isApprovedForAll",
      "outputs": [
        {
          "internalType": "bool",
          "name": "",
          "type": "bool"
        }
      ],
      "stateMutability": "view",
      "type": "function"
    },
    {
      "inputs": [],
      "name": "name",
      "outputs": [
        {
          "internalType": "string",
          "name": "",
          "type": "string"
        }
      ],
      "stateMutability": "view",
      "type": "function"
    },
    {
      "inputs": [],
      "name": "owner",
      "outputs": [
        {
          "internalType": "address",
          "name": "",
          "type": "address"
        }
      ],
      "stateMutability": "view",
      "type": "function"
    },
    {
      "inputs": [
        {
          "internalType": "uint256",
          "name": "tokenId",
          "type": "uint256"
        }
      ],
      "name": "ownerOf",
      "outputs": [
        {
          "internalType": "address",
          "name": "",
          "type": "address"
        }
      ],
      "stateMutability": "view",
      "type": "function"
    },
    {
      "inputs": [],
      "name": "renounceOwnership",
      "outputs": [],
      "stateMutability": "nonpayable",
      "type": "function"
    },
    {
      "inputs": [
        {
          "internalType": "address",
          "name": "from",
          "type": "address"
        },
        {
          "internalType": "address",
          "name": "to",
          "type": "address"
        },
        {
          "internalType": "uint256",
          "name": "tokenId",
          "type": "uint256"
        }
      ],
      "name": "safeTransferFrom",
      "outputs": [],
      "stateMutability": "nonpayable",
      "type": "function"
    },
    {
      "inputs": [
        {
          "internalType": "address",
          "name": "from",
          "type": "address"
        },
        {
          "internalType": "address",
          "name": "to",
          "type": "address"
        },
        {
          "internalType": "uint256",
          "name": "tokenId",
          "type": "uint256"
        },
        {
          "internalType": "bytes",
          "name": "data",
          "type": "bytes"
        }
      ],
      "name": "safeTransferFrom",
      "outputs": [],
      "stateMutability": "nonpayable",
      "type": "function"
    },
    {
      "inputs": [
        {
          "internalType": "address",
          "name": "operator",
          "type": "address"
        },
        {
          "internalType": "bool",
          "name": "approved",
          "type": "bool"
        }
      ],
      "name": "setApprovalForAll",
      "outputs": [],
      "stateMutability": "nonpayable",
      "type": "function"
    },
    {
      "inputs": [],
      "name": "successDeploy",
      "outputs": [
        {
          "internalType": "string",
          "name": "",
          "type": "string"
        }
      ],
      "stateMutability": "pure",
      "type": "function"
    },
    {
      "inputs": [
        {
          "internalType": "bytes4",
          "name": "interfaceId",
          "type": "bytes4"
        }
      ],
      "name": "supportsInterface",
      "outputs": [
        {
          "internalType": "bool",
          "name": "",
          "type": "bool"
        }
      ],
      "stateMutability": "view",
      "type": "function"
    },
    {
      "inputs": [],
      "name": "symbol",
      "outputs": [
        {
          "internalType": "string",
          "name": "",
          "type": "string"
        }
      ],
      "stateMutability": "view",
      "type": "function"
    },
    {
      "inputs": [
        {
          "internalType": "uint256",
          "name": "tokenId",
          "type": "uint256"
        }
      ],
      "name": "tokenURI",
      "outputs": [
        {
          "internalType": "string",
          "name": "",
          "type": "string"
        }
      ],
      "stateMutability": "view",
      "type": "function"
    },
    {
      "inputs": [
        {
          "internalType": "address",
          "name": "from",
          "type": "address"
        },
        {
          "internalType": "address",
          "name": "to",
          "type": "address"
        },
        {
          "internalType": "uint256",
          "name": "tokenId",
          "type": "uint256"
        }
      ],
      "name": "transferFrom",
      "outputs": [],
      "stateMutability": "nonpayable",
      "type": "function"
    },
    {
      "inputs": [
        {
          "internalType": "address",
          "name": "newOwner",
          "type": "address"
        }
      ],
      "name": "transferOwnership",
      "outputs": [],
      "stateMutability": "nonpayable",
      "type": "function"
    },
    {
      "inputs": [
        {
          "internalType": "address",
          "name": "newOwner",
          "type": "address"
        },
        {
          "internalType": "uint256",
          "name": "productId",
          "type": "uint256"
        }
      ],
      "name": "transferProduct",
      "outputs": [
        {
          "internalType": "address",
          "name": "",
          "type": "address"
        }
      ],
      "stateMutability": "nonpayable",
      "type": "function"
    }
  ],
  "bytecode": "0x60806040523480156200001157600080fd5b50336040518060400160405280600e81526020017f4e66744d61726b6574706c6163650000000000000000000000000000000000008152506040518060400160405280600481526020017f4e46544d000000000000000000000000000000000000000000000000000000008152508160009081620000909190620004f4565b508060019081620000a29190620004f4565b505050600073ffffffffffffffffffffffffffffffffffffffff168173ffffffffffffffffffffffffffffffffffffffff16036200011a5760006040517f1e4fbdf700000000000000000000000000000000000000000000000000000000815260040162000111919062000620565b60405180910390fd5b6200012b816200018a60201b60201c565b506000600881905550620001446200025060201b60201c565b600960006101000a81548173ffffffffffffffffffffffffffffffffffffffff021916908373ffffffffffffffffffffffffffffffffffffffff1602179055506200063d565b6000600760009054906101000a900473ffffffffffffffffffffffffffffffffffffffff16905081600760006101000a81548173ffffffffffffffffffffffffffffffffffffffff021916908373ffffffffffffffffffffffffffffffffffffffff1602179055508173ffffffffffffffffffffffffffffffffffffffff168173ffffffffffffffffffffffffffffffffffffffff167f8be0079c531659141344cd1fd0a4f28419497f9722a3daafe3b4186f6b6457e060405160405180910390a35050565b6000600760009054906101000a900473ffffffffffffffffffffffffffffffffffffffff16905090565b600081519050919050565b7f4e487b7100000000000000000000000000000000000000000000000000000000600052604160045260246000fd5b7f4e487b7100000000000000000000000000000000000000000000000000000000600052602260045260246000fd5b60006002820490506001821680620002fc57607f821691505b602082108103620003125762000311620002b4565b5b50919050565b60008190508160005260206000209050919050565b60006020601f8301049050919050565b600082821b905092915050565b6000600883026200037c7fffffffffffffffffffffffffffffffffffffffffffffffffffffffffffffffff826200033d565b6200038886836200033d565b95508019841693508086168417925050509392505050565b6000819050919050565b6000819050919050565b6000620003d5620003cf620003c984620003a0565b620003aa565b620003a0565b9050919050565b6000819050919050565b620003f183620003b4565b620004096200040082620003dc565b8484546200034a565b825550505050565b600090565b6200042062000411565b6200042d818484620003e6565b505050565b5b8181101562000455576200044960008262000416565b60018101905062000433565b5050565b601f821115620004a4576200046e8162000318565b62000479846200032d565b8101602085101562000489578190505b620004a162000498856200032d565b83018262000432565b50505b505050565b600082821c905092915050565b6000620004c960001984600802620004a9565b1980831691505092915050565b6000620004e48383620004b6565b9150826002028217905092915050565b620004ff826200027a565b67ffffffffffffffff8111156200051b576200051a62000285565b5b620005278254620002e3565b6200053482828562000459565b600060209050601f8311600181146200056c576000841562000557578287015190505b620005638582620004d6565b865550620005d3565b601f1984166200057c8662000318565b60005b82811015620005a6578489015182556001820191506020850194506020810190506200057f565b86831015620005c65784890151620005c2601f891682620004b6565b8355505b6001600288020188555050505b505050505050565b600073ffffffffffffffffffffffffffffffffffffffff82169050919050565b60006200060882620005db565b9050919050565b6200061a81620005fb565b82525050565b60006020820190506200063760008301846200060f565b92915050565b6134e0806200064d6000396000f3fe608060405234801561001057600080fd5b50600436106101425760003560e01c806370a08231116100b8578063b88d4fde1161007c578063b88d4fde14610375578063c87b56dd14610391578063d8c41d42146103c1578063e25afaaf146103f1578063e985e9c514610421578063f2fde38b1461045157610142565b806370a08231146102e3578063715018a6146103135780638da5cb5b1461031d57806395d89b411461033b578063a22cb4651461035957610142565b80631acdfb6d1161010a5780631acdfb6d1461021157806323b872dd1461022f57806342842e0e1461024b5780634ffd8d80146102675780636352211e146102835780636813b53b146102b357610142565b806301ffc9a714610147578063025a42ae1461017757806306fdde03146101a7578063081812fc146101c5578063095ea7b3146101f5575b600080fd5b610161600480360381019061015c9190612460565b61046d565b60405161016e91906124a8565b60405180910390f35b610191600480360381019061018c9190612557565b6104ce565b60405161019e91906125a6565b60405180910390f35b6101af610762565b6040516101bc9190612651565b60405180910390f35b6101df60048036038101906101da9190612673565b6107f4565b6040516101ec91906125a6565b60405180910390f35b61020f600480360381019061020a9190612557565b610810565b005b610219610826565b6040516102269190612651565b60405180910390f35b610249600480360381019061024491906126a0565b610863565b005b610265600480360381019061026091906126a0565b610965565b005b610281600480360381019061027c9190612828565b610985565b005b61029d60048036038101906102989190612673565b610c8b565b6040516102aa91906125a6565b60405180910390f35b6102cd60048036038101906102c89190612673565b610c9d565b6040516102da91906129ca565b60405180910390f35b6102fd60048036038101906102f891906129ec565b610e2c565b60405161030a9190612a28565b60405180910390f35b61031b610ee6565b005b610325610efa565b60405161033291906125a6565b60405180910390f35b610343610f24565b6040516103509190612651565b60405180910390f35b610373600480360381019061036e9190612a6f565b610fb6565b005b61038f600480360381019061038a9190612b50565b610fcc565b005b6103ab60048036038101906103a69190612673565b610fe9565b6040516103b89190612651565b60405180910390f35b6103db60048036038101906103d69190612bd3565b6110fc565b6040516103e89190612ccb565b60405180910390f35b61040b600480360381019061040691906129ec565b611172565b6040516104189190612ccb565b60405180910390f35b61043b60048036038101906104369190612ced565b611209565b60405161044891906124a8565b60405180910390f35b61046b600480360381019061046691906129ec565b61129d565b005b6000634906490660e01b7bffffffffffffffffffffffffffffffffffffffffffffffffffffffff1916827bffffffffffffffffffffffffffffffffffffffffffffffffffffffff191614806104c757506104c682611323565b5b9050919050565b6000600a600083815260200190815260200160002060040160009054906101000a900473ffffffffffffffffffffffffffffffffffffffff1673ffffffffffffffffffffffffffffffffffffffff163373ffffffffffffffffffffffffffffffffffffffff1614610574576040517f08c379a000000000000000000000000000000000000000000000000000000000815260040161056b90612d9f565b60405180910390fd5b6000600a60008481526020019081526020016000209050838160050160006101000a81548173ffffffffffffffffffffffffffffffffffffffff021916908373ffffffffffffffffffffffffffffffffffffffff160217905550600c60008573ffffffffffffffffffffffffffffffffffffffff1673ffffffffffffffffffffffffffffffffffffffff1681526020019081526020016000208390806001815401808255809150506001900390600052602060002001600090919091909150556000600c60003373ffffffffffffffffffffffffffffffffffffffff1673ffffffffffffffffffffffffffffffffffffffff168152602001908152602001600020905060005b8180549050811015610732578482828154811061069a57610699612dbf565b5b9060005260206000200154036107255781600183805490506106bc9190612e1d565b815481106106cd576106cc612dbf565b5b90600052602060002001548282815481106106eb576106ea612dbf565b5b90600052602060002001819055508180548061070a57610709612e51565b5b60019003818190600052602060002001600090559055610732565b808060010191505061067a565b508160050160009054906101000a900473ffffffffffffffffffffffffffffffffffffffff169250505092915050565b60606000805461077190612eaf565b80601f016020809104026020016040519081016040528092919081815260200182805461079d90612eaf565b80156107ea5780601f106107bf576101008083540402835291602001916107ea565b820191906000526020600020905b8154815290600101906020018083116107cd57829003601f168201915b5050505050905090565b60006107ff82611405565b506108098261148d565b9050919050565b610822828261081d6114ca565b6114d2565b5050565b60606040518060400160405280601f81526020017f436f6e7472616374206465706c6f796564207375636365737366756c6c792100815250905090565b600073ffffffffffffffffffffffffffffffffffffffff168273ffffffffffffffffffffffffffffffffffffffff16036108d55760006040517f64a0ae920000000000000000000000000000000000000000000000000000000081526004016108cc91906125a6565b60405180910390fd5b60006108e983836108e46114ca565b6114e4565b90508373ffffffffffffffffffffffffffffffffffffffff168173ffffffffffffffffffffffffffffffffffffffff161461095f578382826040517f64283d7b00000000000000000000000000000000000000000000000000000000815260040161095693929190612ee0565b60405180910390fd5b50505050565b61098083838360405180602001604052806000815250610fcc565b505050565b61098d6116fe565b60005b82811015610c2c5760006040518060c001604052806008548152602001878152602001868152602001858152602001600960009054906101000a900473ffffffffffffffffffffffffffffffffffffffff1673ffffffffffffffffffffffffffffffffffffffff168152602001600960009054906101000a900473ffffffffffffffffffffffffffffffffffffffff1673ffffffffffffffffffffffffffffffffffffffff16815250905080600a60006008548152602001908152602001600020600082015181600001556020820151816001019081610a7091906130c3565b50604082015181600201556060820151816003015560808201518160040160006101000a81548173ffffffffffffffffffffffffffffffffffffffff021916908373ffffffffffffffffffffffffffffffffffffffff16021790555060a08201518160050160006101000a81548173ffffffffffffffffffffffffffffffffffffffff021916908373ffffffffffffffffffffffffffffffffffffffff160217905550905050600b86604051610b2691906131d1565b90815260200160405180910390206008549080600181540180825580915050600190039060005260206000200160009091909190915055600c6000600960009054906101000a900473ffffffffffffffffffffffffffffffffffffffff1673ffffffffffffffffffffffffffffffffffffffff1673ffffffffffffffffffffffffffffffffffffffff1681526020019081526020016000206008549080600181540180825580915050600190039060005260206000200160009091909190915055610bfa610bf2610efa565b600854611785565b610c06600854846117a3565b60086000815480929190610c19906131e8565b9190505550508080600101915050610990565b507f6c069a2245d5afea3e4ff20bc5c74d2b33ef8c089d891bd5d258ba32be18012784600b86604051610c5f91906131d1565b908152602001604051809103902084604051610c7d93929190613306565b60405180910390a150505050565b6000610c9682611405565b9050919050565b610ca5612392565b6000600a60008481526020019081526020016000206040518060c001604052908160008201548152602001600182018054610cdf90612eaf565b80601f0160208091040260200160405190810160405280929190818152602001828054610d0b90612eaf565b8015610d585780601f10610d2d57610100808354040283529160200191610d58565b820191906000526020600020905b815481529060010190602001808311610d3b57829003601f168201915b5050505050815260200160028201548152602001600382015481526020016004820160009054906101000a900473ffffffffffffffffffffffffffffffffffffffff1673ffffffffffffffffffffffffffffffffffffffff1673ffffffffffffffffffffffffffffffffffffffff1681526020016005820160009054906101000a900473ffffffffffffffffffffffffffffffffffffffff1673ffffffffffffffffffffffffffffffffffffffff1673ffffffffffffffffffffffffffffffffffffffff1681525050905080915050919050565b60008073ffffffffffffffffffffffffffffffffffffffff168273ffffffffffffffffffffffffffffffffffffffff1603610e9f5760006040517f89c62b64000000000000000000000000000000000000000000000000000000008152600401610e9691906125a6565b60405180910390fd5b600360008373ffffffffffffffffffffffffffffffffffffffff1673ffffffffffffffffffffffffffffffffffffffff168152602001908152602001600020549050919050565b610eee6116fe565b610ef860006117ff565b565b6000600760009054906101000a900473ffffffffffffffffffffffffffffffffffffffff16905090565b606060018054610f3390612eaf565b80601f0160208091040260200160405190810160405280929190818152602001828054610f5f90612eaf565b8015610fac5780601f10610f8157610100808354040283529160200191610fac565b820191906000526020600020905b815481529060010190602001808311610f8f57829003601f168201915b5050505050905090565b610fc8610fc16114ca565b83836118c5565b5050565b610fd7848484610863565b610fe384848484611a34565b50505050565b6060610ff482611405565b50600060066000848152602001908152602001600020805461101590612eaf565b80601f016020809104026020016040519081016040528092919081815260200182805461104190612eaf565b801561108e5780601f106110635761010080835404028352916020019161108e565b820191906000526020600020905b81548152906001019060200180831161107157829003601f168201915b50505050509050600061109f611beb565b905060008151036110b45781925050506110f7565b6000825111156110e95780826040516020016110d192919061334b565b604051602081830303815290604052925050506110f7565b6110f284611c02565b925050505b919050565b6060600b8260405161110e91906131d1565b908152602001604051809103902080548060200260200160405190810160405280929190818152602001828054801561116657602002820191906000526020600020905b815481526020019060010190808311611152575b50505050509050919050565b6060600c60008373ffffffffffffffffffffffffffffffffffffffff1673ffffffffffffffffffffffffffffffffffffffff1681526020019081526020016000208054806020026020016040519081016040528092919081815260200182805480156111fd57602002820191906000526020600020905b8154815260200190600101908083116111e9575b50505050509050919050565b6000600560008473ffffffffffffffffffffffffffffffffffffffff1673ffffffffffffffffffffffffffffffffffffffff16815260200190815260200160002060008373ffffffffffffffffffffffffffffffffffffffff1673ffffffffffffffffffffffffffffffffffffffff16815260200190815260200160002060009054906101000a900460ff16905092915050565b6112a56116fe565b600073ffffffffffffffffffffffffffffffffffffffff168173ffffffffffffffffffffffffffffffffffffffff16036113175760006040517f1e4fbdf700000000000000000000000000000000000000000000000000000000815260040161130e91906125a6565b60405180910390fd5b611320816117ff565b50565b60007f80ac58cd000000000000000000000000000000000000000000000000000000007bffffffffffffffffffffffffffffffffffffffffffffffffffffffff1916827bffffffffffffffffffffffffffffffffffffffffffffffffffffffff191614806113ee57507f5b5e139f000000000000000000000000000000000000000000000000000000007bffffffffffffffffffffffffffffffffffffffffffffffffffffffff1916827bffffffffffffffffffffffffffffffffffffffffffffffffffffffff1916145b806113fe57506113fd82611c6b565b5b9050919050565b60008061141183611cd5565b9050600073ffffffffffffffffffffffffffffffffffffffff168173ffffffffffffffffffffffffffffffffffffffff160361148457826040517f7e27328900000000000000000000000000000000000000000000000000000000815260040161147b9190612a28565b60405180910390fd5b80915050919050565b60006004600083815260200190815260200160002060009054906101000a900473ffffffffffffffffffffffffffffffffffffffff169050919050565b600033905090565b6114df8383836001611d12565b505050565b6000806114f084611cd5565b9050600073ffffffffffffffffffffffffffffffffffffffff168373ffffffffffffffffffffffffffffffffffffffff161461153257611531818486611ed7565b5b600073ffffffffffffffffffffffffffffffffffffffff168173ffffffffffffffffffffffffffffffffffffffff16146115c357611574600085600080611d12565b6001600360008373ffffffffffffffffffffffffffffffffffffffff1673ffffffffffffffffffffffffffffffffffffffff168152602001908152602001600020600082825403925050819055505b600073ffffffffffffffffffffffffffffffffffffffff168573ffffffffffffffffffffffffffffffffffffffff1614611646576001600360008773ffffffffffffffffffffffffffffffffffffffff1673ffffffffffffffffffffffffffffffffffffffff168152602001908152602001600020600082825401925050819055505b846002600086815260200190815260200160002060006101000a81548173ffffffffffffffffffffffffffffffffffffffff021916908373ffffffffffffffffffffffffffffffffffffffff160217905550838573ffffffffffffffffffffffffffffffffffffffff168273ffffffffffffffffffffffffffffffffffffffff167fddf252ad1be2c89b69c2b068fc378daa952ba7f163c4a11628f55a4df523b3ef60405160405180910390a4809150509392505050565b6117066114ca565b73ffffffffffffffffffffffffffffffffffffffff16611724610efa565b73ffffffffffffffffffffffffffffffffffffffff1614611783576117476114ca565b6040517f118cdaa700000000000000000000000000000000000000000000000000000000815260040161177a91906125a6565b60405180910390fd5b565b61179f828260405180602001604052806000815250611f9b565b5050565b806006600084815260200190815260200160002090816117c391906130c3565b507ff8e1a15aba9398e019f0b49df1a4fde98ee17ae345cb5f6b5e2c27f5033e8ce7826040516117f39190612a28565b60405180910390a15050565b6000600760009054906101000a900473ffffffffffffffffffffffffffffffffffffffff16905081600760006101000a81548173ffffffffffffffffffffffffffffffffffffffff021916908373ffffffffffffffffffffffffffffffffffffffff1602179055508173ffffffffffffffffffffffffffffffffffffffff168173ffffffffffffffffffffffffffffffffffffffff167f8be0079c531659141344cd1fd0a4f28419497f9722a3daafe3b4186f6b6457e060405160405180910390a35050565b600073ffffffffffffffffffffffffffffffffffffffff168273ffffffffffffffffffffffffffffffffffffffff160361193657816040517f5b08ba1800000000000000000000000000000000000000000000000000000000815260040161192d91906125a6565b60405180910390fd5b80600560008573ffffffffffffffffffffffffffffffffffffffff1673ffffffffffffffffffffffffffffffffffffffff16815260200190815260200160002060008473ffffffffffffffffffffffffffffffffffffffff1673ffffffffffffffffffffffffffffffffffffffff16815260200190815260200160002060006101000a81548160ff0219169083151502179055508173ffffffffffffffffffffffffffffffffffffffff168373ffffffffffffffffffffffffffffffffffffffff167f17307eab39ab6107e8899845ad3d59bd9653f200f220920489ca2b5937696c3183604051611a2791906124a8565b60405180910390a3505050565b60008373ffffffffffffffffffffffffffffffffffffffff163b1115611be5578273ffffffffffffffffffffffffffffffffffffffff1663150b7a02611a786114ca565b8685856040518563ffffffff1660e01b8152600401611a9a94939291906133c4565b6020604051808303816000875af1925050508015611ad657506040513d601f19601f82011682018060405250810190611ad39190613425565b60015b611b5a573d8060008114611b06576040519150601f19603f3d011682016040523d82523d6000602084013e611b0b565b606091505b506000815103611b5257836040517f64a0ae92000000000000000000000000000000000000000000000000000000008152600401611b4991906125a6565b60405180910390fd5b805181602001fd5b63150b7a0260e01b7bffffffffffffffffffffffffffffffffffffffffffffffffffffffff1916817bffffffffffffffffffffffffffffffffffffffffffffffffffffffff191614611be357836040517f64a0ae92000000000000000000000000000000000000000000000000000000008152600401611bda91906125a6565b60405180910390fd5b505b50505050565b606060405180602001604052806000815250905090565b6060611c0d82611405565b506000611c18611beb565b90506000815111611c385760405180602001604052806000815250611c63565b80611c4284611fb7565b604051602001611c5392919061334b565b6040516020818303038152906040525b915050919050565b60007f01ffc9a7000000000000000000000000000000000000000000000000000000007bffffffffffffffffffffffffffffffffffffffffffffffffffffffff1916827bffffffffffffffffffffffffffffffffffffffffffffffffffffffff1916149050919050565b60006002600083815260200190815260200160002060009054906101000a900473ffffffffffffffffffffffffffffffffffffffff169050919050565b8080611d4b5750600073ffffffffffffffffffffffffffffffffffffffff168273ffffffffffffffffffffffffffffffffffffffff1614155b15611e7f576000611d5b84611405565b9050600073ffffffffffffffffffffffffffffffffffffffff168373ffffffffffffffffffffffffffffffffffffffff1614158015611dc657508273ffffffffffffffffffffffffffffffffffffffff168173ffffffffffffffffffffffffffffffffffffffff1614155b8015611dd95750611dd78184611209565b155b15611e1b57826040517fa9fbf51f000000000000000000000000000000000000000000000000000000008152600401611e1291906125a6565b60405180910390fd5b8115611e7d57838573ffffffffffffffffffffffffffffffffffffffff168273ffffffffffffffffffffffffffffffffffffffff167f8c5be1e5ebec7d5bd14f71427d1e84f3dd0314c0f7b2291e5b200ac8c7c3b92560405160405180910390a45b505b836004600085815260200190815260200160002060006101000a81548173ffffffffffffffffffffffffffffffffffffffff021916908373ffffffffffffffffffffffffffffffffffffffff16021790555050505050565b611ee2838383612085565b611f9657600073ffffffffffffffffffffffffffffffffffffffff168373ffffffffffffffffffffffffffffffffffffffff1603611f5757806040517f7e273289000000000000000000000000000000000000000000000000000000008152600401611f4e9190612a28565b60405180910390fd5b81816040517f177e802f000000000000000000000000000000000000000000000000000000008152600401611f8d929190613452565b60405180910390fd5b505050565b611fa58383612146565b611fb26000848484611a34565b505050565b606060006001611fc68461223f565b01905060008167ffffffffffffffff811115611fe557611fe46126fd565b5b6040519080825280601f01601f1916602001820160405280156120175781602001600182028036833780820191505090505b509050600082602001820190505b60011561207a578080600190039150507f3031323334353637383961626364656600000000000000000000000000000000600a86061a8153600a858161206e5761206d61347b565b5b04945060008503612025575b819350505050919050565b60008073ffffffffffffffffffffffffffffffffffffffff168373ffffffffffffffffffffffffffffffffffffffff161415801561213d57508273ffffffffffffffffffffffffffffffffffffffff168473ffffffffffffffffffffffffffffffffffffffff1614806120fe57506120fd8484611209565b5b8061213c57508273ffffffffffffffffffffffffffffffffffffffff166121248361148d565b73ffffffffffffffffffffffffffffffffffffffff16145b5b90509392505050565b600073ffffffffffffffffffffffffffffffffffffffff168273ffffffffffffffffffffffffffffffffffffffff16036121b85760006040517f64a0ae920000000000000000000000000000000000000000000000000000000081526004016121af91906125a6565b60405180910390fd5b60006121c6838360006114e4565b9050600073ffffffffffffffffffffffffffffffffffffffff168173ffffffffffffffffffffffffffffffffffffffff161461223a5760006040517f73c6ac6e00000000000000000000000000000000000000000000000000000000815260040161223191906125a6565b60405180910390fd5b505050565b600080600090507a184f03e93ff9f4daa797ed6e38ed64bf6a1f010000000000000000831061229d577a184f03e93ff9f4daa797ed6e38ed64bf6a1f01000000000000000083816122935761229261347b565b5b0492506040810190505b6d04ee2d6d415b85acef810000000083106122da576d04ee2d6d415b85acef810000000083816122d0576122cf61347b565b5b0492506020810190505b662386f26fc10000831061230957662386f26fc1000083816122ff576122fe61347b565b5b0492506010810190505b6305f5e1008310612332576305f5e10083816123285761232761347b565b5b0492506008810190505b612710831061235757612710838161234d5761234c61347b565b5b0492506004810190505b6064831061237a57606483816123705761236f61347b565b5b0492506002810190505b600a8310612389576001810190505b80915050919050565b6040518060c0016040528060008152602001606081526020016000815260200160008152602001600073ffffffffffffffffffffffffffffffffffffffff168152602001600073ffffffffffffffffffffffffffffffffffffffff1681525090565b6000604051905090565b600080fd5b600080fd5b60007fffffffff0000000000000000000000000000000000000000000000000000000082169050919050565b61243d81612408565b811461244857600080fd5b50565b60008135905061245a81612434565b92915050565b600060208284031215612476576124756123fe565b5b60006124848482850161244b565b91505092915050565b60008115159050919050565b6124a28161248d565b82525050565b60006020820190506124bd6000830184612499565b92915050565b600073ffffffffffffffffffffffffffffffffffffffff82169050919050565b60006124ee826124c3565b9050919050565b6124fe816124e3565b811461250957600080fd5b50565b60008135905061251b816124f5565b92915050565b6000819050919050565b61253481612521565b811461253f57600080fd5b50565b6000813590506125518161252b565b92915050565b6000806040838503121561256e5761256d6123fe565b5b600061257c8582860161250c565b925050602061258d85828601612542565b9150509250929050565b6125a0816124e3565b82525050565b60006020820190506125bb6000830184612597565b92915050565b600081519050919050565b600082825260208201905092915050565b60005b838110156125fb5780820151818401526020810190506125e0565b60008484015250505050565b6000601f19601f8301169050919050565b6000612623826125c1565b61262d81856125cc565b935061263d8185602086016125dd565b61264681612607565b840191505092915050565b6000602082019050818103600083015261266b8184612618565b905092915050565b600060208284031215612689576126886123fe565b5b600061269784828501612542565b91505092915050565b6000806000606084860312156126b9576126b86123fe565b5b60006126c78682870161250c565b93505060206126d88682870161250c565b92505060406126e986828701612542565b9150509250925092565b600080fd5b600080fd5b7f4e487b7100000000000000000000000000000000000000000000000000000000600052604160045260246000fd5b61273582612607565b810181811067ffffffffffffffff82111715612754576127536126fd565b5b80604052505050565b60006127676123f4565b9050612773828261272c565b919050565b600067ffffffffffffffff821115612793576127926126fd565b5b61279c82612607565b9050602081019050919050565b82818337600083830152505050565b60006127cb6127c684612778565b61275d565b9050828152602081018484840111156127e7576127e66126f8565b5b6127f28482856127a9565b509392505050565b600082601f83011261280f5761280e6126f3565b5b813561281f8482602086016127b8565b91505092915050565b60008060008060808587031215612842576128416123fe565b5b600085013567ffffffffffffffff8111156128605761285f612403565b5b61286c878288016127fa565b945050602061287d87828801612542565b935050604061288e87828801612542565b925050606085013567ffffffffffffffff8111156128af576128ae612403565b5b6128bb878288016127fa565b91505092959194509250565b6128d081612521565b82525050565b600082825260208201905092915050565b60006128f2826125c1565b6128fc81856128d6565b935061290c8185602086016125dd565b61291581612607565b840191505092915050565b600061292b826124c3565b9050919050565b61293b81612920565b82525050565b600060c08301600083015161295960008601826128c7565b506020830151848203602086015261297182826128e7565b915050604083015161298660408601826128c7565b50606083015161299960608601826128c7565b5060808301516129ac6080860182612932565b5060a08301516129bf60a0860182612932565b508091505092915050565b600060208201905081810360008301526129e48184612941565b905092915050565b600060208284031215612a0257612a016123fe565b5b6000612a108482850161250c565b91505092915050565b612a2281612521565b82525050565b6000602082019050612a3d6000830184612a19565b92915050565b612a4c8161248d565b8114612a5757600080fd5b50565b600081359050612a6981612a43565b92915050565b60008060408385031215612a8657612a856123fe565b5b6000612a948582860161250c565b9250506020612aa585828601612a5a565b9150509250929050565b600067ffffffffffffffff821115612aca57612ac96126fd565b5b612ad382612607565b9050602081019050919050565b6000612af3612aee84612aaf565b61275d565b905082815260208101848484011115612b0f57612b0e6126f8565b5b612b1a8482856127a9565b509392505050565b600082601f830112612b3757612b366126f3565b5b8135612b47848260208601612ae0565b91505092915050565b60008060008060808587031215612b6a57612b696123fe565b5b6000612b788782880161250c565b9450506020612b898782880161250c565b9350506040612b9a87828801612542565b925050606085013567ffffffffffffffff811115612bbb57612bba612403565b5b612bc787828801612b22565b91505092959194509250565b600060208284031215612be957612be86123fe565b5b600082013567ffffffffffffffff811115612c0757612c06612403565b5b612c13848285016127fa565b91505092915050565b600081519050919050565b600082825260208201905092915050565b6000819050602082019050919050565b6000612c5483836128c7565b60208301905092915050565b6000602082019050919050565b6000612c7882612c1c565b612c828185612c27565b9350612c8d83612c38565b8060005b83811015612cbe578151612ca58882612c48565b9750612cb083612c60565b925050600181019050612c91565b5085935050505092915050565b60006020820190508181036000830152612ce58184612c6d565b905092915050565b60008060408385031215612d0457612d036123fe565b5b6000612d128582860161250c565b9250506020612d238582860161250c565b9150509250929050565b7f4f6e6c7920746865206f776e65722063616e207472616e73666572207468652060008201527f70726f6475637400000000000000000000000000000000000000000000000000602082015250565b6000612d896027836125cc565b9150612d9482612d2d565b604082019050919050565b60006020820190508181036000830152612db881612d7c565b9050919050565b7f4e487b7100000000000000000000000000000000000000000000000000000000600052603260045260246000fd5b7f4e487b7100000000000000000000000000000000000000000000000000000000600052601160045260246000fd5b6000612e2882612521565b9150612e3383612521565b9250828203905081811115612e4b57612e4a612dee565b5b92915050565b7f4e487b7100000000000000000000000000000000000000000000000000000000600052603160045260246000fd5b7f4e487b7100000000000000000000000000000000000000000000000000000000600052602260045260246000fd5b60006002820490506001821680612ec757607f821691505b602082108103612eda57612ed9612e80565b5b50919050565b6000606082019050612ef56000830186612597565b612f026020830185612a19565b612f0f6040830184612597565b949350505050565b60008190508160005260206000209050919050565b60006020601f8301049050919050565b600082821b905092915050565b600060088302612f797fffffffffffffffffffffffffffffffffffffffffffffffffffffffffffffffff82612f3c565b612f838683612f3c565b95508019841693508086168417925050509392505050565b6000819050919050565b6000612fc0612fbb612fb684612521565b612f9b565b612521565b9050919050565b6000819050919050565b612fda83612fa5565b612fee612fe682612fc7565b848454612f49565b825550505050565b600090565b613003612ff6565b61300e818484612fd1565b505050565b5b8181101561303257613027600082612ffb565b600181019050613014565b5050565b601f8211156130775761304881612f17565b61305184612f2c565b81016020851015613060578190505b61307461306c85612f2c565b830182613013565b50505b505050565b600082821c905092915050565b600061309a6000198460080261307c565b1980831691505092915050565b60006130b38383613089565b9150826002028217905092915050565b6130cc826125c1565b67ffffffffffffffff8111156130e5576130e46126fd565b5b6130ef8254612eaf565b6130fa828285613036565b600060209050601f83116001811461312d576000841561311b578287015190505b61312585826130a7565b86555061318d565b601f19841661313b86612f17565b60005b828110156131635784890151825560018201915060208501945060208101905061313e565b86831015613180578489015161317c601f891682613089565b8355505b6001600288020188555050505b505050505050565b600081905092915050565b60006131ab826125c1565b6131b58185613195565b93506131c58185602086016125dd565b80840191505092915050565b60006131dd82846131a0565b915081905092915050565b60006131f382612521565b91507fffffffffffffffffffffffffffffffffffffffffffffffffffffffffffffffff820361322557613224612dee565b5b600182019050919050565b600081549050919050565b60008190508160005260206000209050919050565b60008160001c9050919050565b6000819050919050565b600061327a61327583613250565b61325d565b9050919050565b600061328d8254613267565b9050919050565b6000600182019050919050565b60006132ac82613230565b6132b68185612c27565b93506132c18361323b565b8060005b838110156132f9576132d682613281565b6132e08882612c48565b97506132eb83613294565b9250506001810190506132c5565b5085935050505092915050565b600060608201905081810360008301526133208186612618565b9050818103602083015261333481856132a1565b90506133436040830184612a19565b949350505050565b600061335782856131a0565b915061336382846131a0565b91508190509392505050565b600081519050919050565b600082825260208201905092915050565b60006133968261336f565b6133a0818561337a565b93506133b08185602086016125dd565b6133b981612607565b840191505092915050565b60006080820190506133d96000830187612597565b6133e66020830186612597565b6133f36040830185612a19565b8181036060830152613405818461338b565b905095945050505050565b60008151905061341f81612434565b92915050565b60006020828403121561343b5761343a6123fe565b5b600061344984828501613410565b91505092915050565b60006040820190506134676000830185612597565b6134746020830184612a19565b9392505050565b7f4e487b7100000000000000000000000000000000000000000000000000000000600052601260045260246000fdfea26469706673582212200191efb45499962628ebc6fd59e5b6229e3f2e84ec89af9aa26e68cb21ec21f364736f6c63430008180033",
  "linkReferences": {},
  "deployedLinkReferences": {}
}